{
  "_format": "hh-sol-artifact-1",
  "contractName": "AdminBox",
  "sourceName": "contracts/AdminBox.sol",
  "abi": [
    {
      "inputs": [],
      "stateMutability": "nonpayable",
      "type": "constructor"
    },
    {
      "anonymous": false,
      "inputs": [
        {
          "indexed": false,
          "internalType": "uint8",
          "name": "version",
          "type": "uint8"
        }
      ],
      "name": "Initialized",
      "type": "event"
    },
    {
      "anonymous": false,
      "inputs": [
        {
          "indexed": false,
          "internalType": "uint256",
          "name": "value",
          "type": "uint256"
        }
      ],
      "name": "ValueChanged",
      "type": "event"
    },
    {
      "inputs": [
        {
          "internalType": "address",
          "name": "admin",
          "type": "address"
        }
      ],
      "name": "initialize",
      "outputs": [],
      "stateMutability": "nonpayable",
      "type": "function"
    },
    {
      "inputs": [],
      "name": "retrieve",
      "outputs": [
        {
          "internalType": "uint256",
          "name": "",
          "type": "uint256"
        }
      ],
      "stateMutability": "view",
      "type": "function"
    },
    {
      "inputs": [
        {
          "internalType": "uint256",
          "name": "value",
          "type": "uint256"
        }
      ],
      "name": "store",
      "outputs": [],
      "stateMutability": "nonpayable",
      "type": "function"
    }
  ],
  "bytecode": "0x608060405234801561001057600080fd5b5060008060019054906101000a900460ff161590508080156100425750600160008054906101000a900460ff1660ff16105b80610079575061005b3061015460201b6102ef1760201c565b1580156100785750600160008054906101000a900460ff1660ff16145b5b6100b8576040517f08c379a00000000000000000000000000000000000000000000000000000000081526004016100af906101fa565b60405180910390fd5b60016000806101000a81548160ff021916908360ff16021790555080156100f5576001600060016101000a81548160ff0219169083151502179055505b801561014e5760008060016101000a81548160ff0219169083151502179055507f7f26b83ff96e1f2b6a682f133852f6798a09c465da95921460cefb38474024986001604051610145919061026c565b60405180910390a15b50610287565b6000808273ffffffffffffffffffffffffffffffffffffffff163b119050919050565b600082825260208201905092915050565b7f496e697469616c697a61626c653a20636f6e747261637420697320616c72656160008201527f647920696e697469616c697a6564000000000000000000000000000000000000602082015250565b60006101e4602e83610177565b91506101ef82610188565b604082019050919050565b60006020820190508181036000830152610213816101d7565b9050919050565b6000819050919050565b600060ff82169050919050565b6000819050919050565b600061025661025161024c8461021a565b610231565b610224565b9050919050565b6102668161023b565b82525050565b6000602082019050610281600083018461025d565b92915050565b6105e1806102966000396000f3fe608060405234801561001057600080fd5b50600436106100415760003560e01c80632e64cec1146100465780636057361d14610064578063c4d66de814610080575b600080fd5b61004e61009c565b60405161005b919061032b565b60405180910390f35b61007e60048036038101906100799190610377565b6100a6565b005b61009a60048036038101906100959190610402565b610177565b005b6000600154905090565b600260009054906101000a900473ffffffffffffffffffffffffffffffffffffffff1673ffffffffffffffffffffffffffffffffffffffff163373ffffffffffffffffffffffffffffffffffffffff1614610136576040517f08c379a000000000000000000000000000000000000000000000000000000000815260040161012d9061048c565b60405180910390fd5b806001819055507f93fe6d397c74fdf1402a8b72e47b68512f0510d7b98a4bc4cbdf6ac7108b3c598160405161016c919061032b565b60405180910390a150565b60008060019054906101000a900460ff161590508080156101a85750600160008054906101000a900460ff1660ff16105b806101d557506101b7306102ef565b1580156101d45750600160008054906101000a900460ff1660ff16145b5b610214576040517f08c379a000000000000000000000000000000000000000000000000000000000815260040161020b9061051e565b60405180910390fd5b60016000806101000a81548160ff021916908360ff1602179055508015610251576001600060016101000a81548160ff0219169083151502179055505b81600260006101000a81548173ffffffffffffffffffffffffffffffffffffffff021916908373ffffffffffffffffffffffffffffffffffffffff16021790555080156102eb5760008060016101000a81548160ff0219169083151502179055507f7f26b83ff96e1f2b6a682f133852f6798a09c465da95921460cefb384740249860016040516102e29190610590565b60405180910390a15b5050565b6000808273ffffffffffffffffffffffffffffffffffffffff163b119050919050565b6000819050919050565b61032581610312565b82525050565b6000602082019050610340600083018461031c565b92915050565b600080fd5b61035481610312565b811461035f57600080fd5b50565b6000813590506103718161034b565b92915050565b60006020828403121561038d5761038c610346565b5b600061039b84828501610362565b91505092915050565b600073ffffffffffffffffffffffffffffffffffffffff82169050919050565b60006103cf826103a4565b9050919050565b6103df816103c4565b81146103ea57600080fd5b50565b6000813590506103fc816103d6565b92915050565b60006020828403121561041857610417610346565b5b6000610426848285016103ed565b91505092915050565b600082825260208201905092915050565b7f41646d696e426f783a206e6f742061646d696e00000000000000000000000000600082015250565b600061047660138361042f565b915061048182610440565b602082019050919050565b600060208201905081810360008301526104a581610469565b9050919050565b7f496e697469616c697a61626c653a20636f6e747261637420697320616c72656160008201527f647920696e697469616c697a6564000000000000000000000000000000000000602082015250565b6000610508602e8361042f565b9150610513826104ac565b604082019050919050565b60006020820190508181036000830152610537816104fb565b9050919050565b6000819050919050565b600060ff82169050919050565b6000819050919050565b600061057a6105756105708461053e565b610555565b610548565b9050919050565b61058a8161055f565b82525050565b60006020820190506105a56000830184610581565b9291505056fea2646970667358221220c401d06ed667961f9e52d7d42364b886282c7237df43c009654fef1f222ded9364736f6c63430008090033",
  "linkReferences": {},
  "deployedLinkReferences": {}
}