{
  "contracts/BoxV2.sol": {
    "BoxV2": {
      "abi": [
        {
          "anonymous": false,
          "inputs": [
            {
              "indexed": false,
              "internalType": "uint256",
              "name": "value",
              "type": "uint256"
            }
          ],
          "name": "ValueChanged",
          "type": "event"
        },
        {
          "inputs": [],
          "name": "increment",
          "outputs": [],
          "stateMutability": "nonpayable",
          "type": "function"
        },
        {
          "inputs": [],
          "name": "retrieve",
          "outputs": [
            {
              "internalType": "uint256",
              "name": "",
              "type": "uint256"
            }
          ],
          "stateMutability": "view",
          "type": "function"
        },
        {
          "inputs": [
            {
              "internalType": "uint256",
              "name": "value",
              "type": "uint256"
            }
          ],
          "name": "store",
          "outputs": [],
          "stateMutability": "nonpayable",
          "type": "function"
        }
      ],
      "evm": {
        "bytecode": {
          "linkReferences": {},
          "object": "608060405234801561001057600080fd5b50610271806100206000396000f3fe608060405234801561001057600080fd5b50600436106100415760003560e01c80632e64cec1146100465780636057361d14610064578063d09de08a14610080575b600080fd5b61004e61008a565b60405161005b919061013d565b60405180910390f35b61007e60048036038101906100799190610189565b610093565b005b6100886100d4565b005b60008054905090565b806000819055507f93fe6d397c74fdf1402a8b72e47b68512f0510d7b98a4bc4cbdf6ac7108b3c59816040516100c9919061013d565b60405180910390a150565b60016000546100e391906101e5565b6000819055507f93fe6d397c74fdf1402a8b72e47b68512f0510d7b98a4bc4cbdf6ac7108b3c5960005460405161011a919061013d565b60405180910390a1565b6000819050919050565b61013781610124565b82525050565b6000602082019050610152600083018461012e565b92915050565b600080fd5b61016681610124565b811461017157600080fd5b50565b6000813590506101838161015d565b92915050565b60006020828403121561019f5761019e610158565b5b60006101ad84828501610174565b91505092915050565b7f4e487b7100000000000000000000000000000000000000000000000000000000600052601160045260246000fd5b60006101f082610124565b91506101fb83610124565b9250827fffffffffffffffffffffffffffffffffffffffffffffffffffffffffffffffff038211156102305761022f6101b6565b5b82820190509291505056fea264697066735822122083cc470a4dfd5e469e1f6d009e0421f0a9ac2891bfc7b6c978ae45b528f64a6264736f6c63430008090033",
          "opcodes": "PUSH1 0x80 PUSH1 0x40 MSTORE CALLVALUE DUP1 ISZERO PUSH2 0x10 JUMPI PUSH1 0x0 DUP1 REVERT JUMPDEST POP PUSH2 0x271 DUP1 PUSH2 0x20 PUSH1 0x0 CODECOPY PUSH1 0x0 RETURN INVALID PUSH1 0x80 PUSH1 0x40 MSTORE CALLVALUE DUP1 ISZERO PUSH2 0x10 JUMPI PUSH1 0x0 DUP1 REVERT JUMPDEST POP PUSH1 0x4 CALLDATASIZE LT PUSH2 0x41 JUMPI PUSH1 0x0 CALLDATALOAD PUSH1 0xE0 SHR DUP1 PUSH4 0x2E64CEC1 EQ PUSH2 0x46 JUMPI DUP1 PUSH4 0x6057361D EQ PUSH2 0x64 JUMPI DUP1 PUSH4 0xD09DE08A EQ PUSH2 0x80 JUMPI JUMPDEST PUSH1 0x0 DUP1 REVERT JUMPDEST PUSH2 0x4E PUSH2 0x8A JUMP JUMPDEST PUSH1 0x40 MLOAD PUSH2 0x5B SWAP2 SWAP1 PUSH2 0x13D JUMP JUMPDEST PUSH1 0x40 MLOAD DUP1 SWAP2 SUB SWAP1 RETURN JUMPDEST PUSH2 0x7E PUSH1 0x4 DUP1 CALLDATASIZE SUB DUP2 ADD SWAP1 PUSH2 0x79 SWAP2 SWAP1 PUSH2 0x189 JUMP JUMPDEST PUSH2 0x93 JUMP JUMPDEST STOP JUMPDEST PUSH2 0x88 PUSH2 0xD4 JUMP JUMPDEST STOP JUMPDEST PUSH1 0x0 DUP1 SLOAD SWAP1 POP SWAP1 JUMP JUMPDEST DUP1 PUSH1 0x0 DUP2 SWAP1 SSTORE POP PUSH32 0x93FE6D397C74FDF1402A8B72E47B68512F0510D7B98A4BC4CBDF6AC7108B3C59 DUP2 PUSH1 0x40 MLOAD PUSH2 0xC9 SWAP2 SWAP1 PUSH2 0x13D JUMP JUMPDEST PUSH1 0x40 MLOAD DUP1 SWAP2 SUB SWAP1 LOG1 POP JUMP JUMPDEST PUSH1 0x1 PUSH1 0x0 SLOAD PUSH2 0xE3 SWAP2 SWAP1 PUSH2 0x1E5 JUMP JUMPDEST PUSH1 0x0 DUP2 SWAP1 SSTORE POP PUSH32 0x93FE6D397C74FDF1402A8B72E47B68512F0510D7B98A4BC4CBDF6AC7108B3C59 PUSH1 0x0 SLOAD PUSH1 0x40 MLOAD PUSH2 0x11A SWAP2 SWAP1 PUSH2 0x13D JUMP JUMPDEST PUSH1 0x40 MLOAD DUP1 SWAP2 SUB SWAP1 LOG1 JUMP JUMPDEST PUSH1 0x0 DUP2 SWAP1 POP SWAP2 SWAP1 POP JUMP JUMPDEST PUSH2 0x137 DUP2 PUSH2 0x124 JUMP JUMPDEST DUP3 MSTORE POP POP JUMP JUMPDEST PUSH1 0x0 PUSH1 0x20 DUP3 ADD SWAP1 POP PUSH2 0x152 PUSH1 0x0 DUP4 ADD DUP5 PUSH2 0x12E JUMP JUMPDEST SWAP3 SWAP2 POP POP JUMP JUMPDEST PUSH1 0x0 DUP1 REVERT JUMPDEST PUSH2 0x166 DUP2 PUSH2 0x124 JUMP JUMPDEST DUP2 EQ PUSH2 0x171 JUMPI PUSH1 0x0 DUP1 REVERT JUMPDEST POP JUMP JUMPDEST PUSH1 0x0 DUP2 CALLDATALOAD SWAP1 POP PUSH2 0x183 DUP2 PUSH2 0x15D JUMP JUMPDEST SWAP3 SWAP2 POP POP JUMP JUMPDEST PUSH1 0x0 PUSH1 0x20 DUP3 DUP5 SUB SLT ISZERO PUSH2 0x19F JUMPI PUSH2 0x19E PUSH2 0x158 JUMP JUMPDEST JUMPDEST PUSH1 0x0 PUSH2 0x1AD DUP5 DUP3 DUP6 ADD PUSH2 0x174 JUMP JUMPDEST SWAP2 POP POP SWAP3 SWAP2 POP POP JUMP JUMPDEST PUSH32 0x4E487B7100000000000000000000000000000000000000000000000000000000 PUSH1 0x0 MSTORE PUSH1 0x11 PUSH1 0x4 MSTORE PUSH1 0x24 PUSH1 0x0 REVERT JUMPDEST PUSH1 0x0 PUSH2 0x1F0 DUP3 PUSH2 0x124 JUMP JUMPDEST SWAP2 POP PUSH2 0x1FB DUP4 PUSH2 0x124 JUMP JUMPDEST SWAP3 POP DUP3 PUSH32 0xFFFFFFFFFFFFFFFFFFFFFFFFFFFFFFFFFFFFFFFFFFFFFFFFFFFFFFFFFFFFFFFF SUB DUP3 GT ISZERO PUSH2 0x230 JUMPI PUSH2 0x22F PUSH2 0x1B6 JUMP JUMPDEST JUMPDEST DUP3 DUP3 ADD SWAP1 POP SWAP3 SWAP2 POP POP JUMP INVALID LOG2 PUSH5 0x6970667358 0x22 SLT KECCAK256 DUP4 0xCC SELFBALANCE EXP 0x4D REVERT 0x5E CHAINID SWAP15 0x1F PUSH14 0x9E0421F0A9AC2891BFC7B6C978 0xAE GASLIMIT 0xB5 0x28 0xF6 0x4A PUSH3 0x64736F PUSH13 0x63430008090033000000000000 "
        },
        "methodIdentifiers": {
          "increment()": "d09de08a",
          "retrieve()": "2e64cec1",
          "store(uint256)": "6057361d"
        }
      },
      "storageLayout": {
        "storage": [
          {
            "astId": 491,
            "contract": "contracts/BoxV2.sol:BoxV2",
            "label": "_value",
            "offset": 0,
            "slot": "0",
            "type": "t_uint256"
          }
        ],
        "types": {
          "t_uint256": {
            "encoding": "inplace",
            "label": "uint256",
            "numberOfBytes": "32"
          }
        }
      }
    }
  }
}